:020000040000fa
:08000000020c040000000000e6
:020000040000fa
:10180400cf832000007f2200000188000000000038
:101814000a00070011000700000020000000e0009b
:101824000200320000000200000000004017020025
:10183400000000000040da000000fe004440a9005f
:10184400800420000000e0000300320000002000bb
:10185400a00188004440a8000000060060aa2100fe
:10186400010020001500370062004000e0804800bd
:10187400910188009001ba0062004000e0804800b5
:10188400910188009002ba0062004000e0804800a4
:101894000002eb006028e10004003a000059eb006c
:1018a4008301e900fdff3e00040037006128e100e8
:1018b400010032000082eb0005000700910188005e
:1018c4001001ba000200e000e7ff3a000000050042
:1018d400910188008002780062004000e0804800a6
:1018e4003559ba008301e900080032002559ba00cd
:1018f4008301e900050032000400e000f4ff320037
:1019040015d9ba008301e900f1ff3a00000006008e
:101914008e0c040000000000881f78000204780088
:1019240014000700080040004f047800000006007f
:101934000000fa00881f7800000478003fb997007f
:10194400ea81570080007800e0c8200010000700fa
:10195400800078000000e000020035000040eb0049
:1019640000f47800010078004f0478000080fa0049
:10197400000006008001eb000200370061f07900ee
:101984008301e800828f5100fcff3a00000006004a
:101994006200fa00889fbe008a9fbe000004be0059
:1019a400020578008300780060f92f000f004000e2
:1019b400b000070088979f0099979f000000eb00f4
:1019c400a09f9f009a4578000b80fb000000ea006e
:1019d400cf04de0050c2b30080cf550002003200b5
:1019e40009047800010037000904e9000800e00058
:1019f4000b0034001f909700080178008a007800db
:101a04008f9197000300010090979f000000e00071
:101a1400930032002f98970000004400a09f9f007d
:101a24000905450050c2b30080cf550004003200c0
:101a34000b04e000e3ff3a002f9897008900370079
:101a44000000eb00809f9f00f0979f00e0979f00ad
:101a5400d0979f00c0979f00b0979f00c09f9f00a2
:101a640009003700e08220000080500000004000a0
:101a740021822000e10078004f9897000100700057
:101a8400c09f9f000a05e8001a4478008800fb0004
:101a9400e08220007c000700800078000000e00065
:101aa400f0ff3a00a0c2b300804f54000e003a0089
:101ab400bf8897000180e900b08f9f001000780074
:101ac400b09f9f000000e00005003d000000ea0018
:101ad400b09f9f004f9897000020a000c09f9f00d8
:101ae4000a05e80010003700b19f9f000900370085
:101af400bf989700f0ff2700808f50000400320049
:101b04006a08b9000000410003004000b09f9f0034
:101b14000a05e8001a01fb0003fd2f000300410041
:101b2400e90f5000f2ff3600e0c2b3009a4f1000f4
:101b3400040032000080eb00909f9f008a0478002c
:101b44001c0037008a04e800a0c2b300994f1000bb
:101b540007003a00bf8897000180e900b08f9f001a
:101b640010007800909f9f008a84e80011003700dd
:101b74000000eb00909f9f00090037009f9897009a
:101b8400f0ff2700808f5000040032006a08b9007b
:101b94000000410003004000909f9f008904e8007a
:101ba4001901fb0003fd2f0003004100e90f500061
:101bb400f2ff3600194478008800fb0040832000bf
:101bc400310007000000e00002003a000044780001
:101bd400010037008904e800a87f9f0080c6b30095
:101be400804f540004003a00994f14000a003a0050
:101bf4006640500006003700c0c6b300804f540052
:101c040005003a00994f140003003a006540400073
:101c1400a07f9f008904e8000905e800cbfb2f00a2
:101c24008f8545001901fb0060f92f000f0040006b
:101c34000084e8008b0178008000780008007800b8
:101c44001a0007000000e00005003a008b0078004d
:101c540008007800580107000000e00059ff3d002b
:101c64000080eb004f05be004f04be000080fa0068
:101c7400000006000200fa00f1bf9f00010878008e
:101c84000080fa0000000600040037000204e000af
:101c940001003a00000005000000e800104178004f
:101ca400814f5100f9ff3a0000000600889fbe00f2
:101cb4008a1f7800000478000102780082447800ca
:101cc40003057800e0c6b300804f5100d200320013
:101cd40015003c006b405000804f5100240032003e
:101ce4000a003c0070405000804f51000f01320048
:101cf40065404000804f51007400320050c2b30070
:101d0400804f510020013a001c01370040c6b30047
:101d1400804f51001b00320065404000804f51004d
:101d240019013a001700370030c7b300804f510043
:101d3400fe00320007003c0064405000804f510018
:101d4400620032000040e800804f51000e013a006a
:101d5400e700370050c7b300804f51005b003200ea
:101d640063404000804f510007013a00570037009c
:101d74009180e900010a7800780090009171780060
:101d840007013700a8609000c0c6b30080cf5000a0
:101d94000a003a009400780064805000000a780039
:101da4001000be004f89de00cf91de000002be00ad
:101db40002037800820378001300370010c7b300d1
:101dc40080cf500003003200a0c6b30080cf500083
:101dd40006003a009400780068805000000a7800f9
:101de4003002be002003be00070037001480e90063
:101df400000a78001000780000027800cfa2de000c
:101e04000503780086037800049cbe000694be0097
:101e1400a860900080c6b30080cf50000e0032004e
:101e240020c6b30080cf500005003a000400fb0038
:101e3400cf80de0001017800820178000a003700bb
:101e440040c7b30080cf500003003200664040001a
:101e540080cf500006003a0004007800cf80de00f6
:101e64000101780082017800009cbe000294be004b
:101e74003800be002801be00e00f5000e08f58007b
:101e8400e00f5900e08f590003003d0078009000f6
:101e9400d1c2b3000a003700081090000018a30054
:101ea4000300320078009000b1c2b3000400370090
:101eb4000008a300530032007800900001c2b30070
:101ec400017578000000e8004d003700a86090001c
:101ed400c0c6b30080cf500006003a0094007800da
:101ee40064805000000a78001002be006033b8001d
:101ef4001300370010c7b30080cf50000300320036
:101f0400a0c6b30080cf500006003a0094007800c9
:101f140068805000000a78003002be002003be0032
:101f2400070037001480e900000a780010007800e8
:101f340000027800050020000600200007002000b1
:101f4400049cbe000694be00a860900080c6b30046
:101f540080cf50000e00320020c6b30080cf500066
:101f640005003a000480fb0001002000020020006c
:101f7400030020000a00370040c7b30080cf5000a0
:101f8400030032006640400080cf500006003a0053
:101f9400040078000100200002002000030020005b
:101fa400009cbe000294be00081090000038a300fc
:101fb400140032003800be002801be00e00f5000bb
:101fc400e08f5800e00f5900e08f59000d003200f7
:101fd40080c7b30080cf54000300320080c5b30033
:101fe40080cf540007003a007800900001c3b3008a
:101ff400017578008000e80009f578000080e800a9
:102004007004980078009000000045006004980077
:102014008940780042003700a8609000c0c6b30031
:1020240080cf5000250032000a003c00644050007c
:1020340080cf50002800320000c0e80080cf50005c
:10204400140032006840500080cf500022003a0053
:102054000a00370040c7b30080cf50001e00320092
:102064006640400080cf50001b00320069405000a1
:1020740080cf500018003a00060037001480e900b1
:10208400000a780010007800485c90000848780046
:10209400450037001480e900000a78001002780037
:1020a40068089000cf80de0001017800820178008a
:1020b400009abe000292be003b0037001480e90083
:1020c400000a78001001780068089000cf80de00d4
:1020d4000089be00340037001480e900000a78004b
:1020e40010007800680c9000080878002e00370073
:1020f4001180e9008008780010007800cf80de00ad
:102104000101780082017800009cbe000294be00a8
:1021140078009000000045006004980081c7b30077
:1021240008007800ee0007001f0037001480e90063
:10213400000a7800100078006004980058099000a4
:102144000200e00002003d009d0107000900370085
:102154008000eb00a1010700800078000000e0008f
:102164000300320068009000008050000100370036
:1021740058089000100c98000b003700780090006d
:102184000275780006003700780090008000450052
:102194000904e00001003a0059c2b30089487800fc
:1021a4000000e800700498000000eb004f05780080
:1021b4004f04be00000006000400fa00889fbe0021
:1021c4008a9fbe008c1f7800000478000106780006
:1021d40070089000f80090000100500088089000fa
:1021e400010050009808900001005000a8089000d9
:1021f40001005000b808900001005000c808900089
:10220400810550000002220090bf9f0000032300bc
:10221400a0bf9f00081090000028a30018003a00f7
:102224000b00e000160034008b04780009057800e8
:10223400e28f5400020036002a002000020037001a
:102244000900e0000b00340058009000c801900021
:102254000a017800ee805700030001005004980042
:102264000000e0009600320068089000000045007d
:10227400600c98008a8454004240a900ebff3c00a3
:10228400780190000200e0000b0034005800900038
:10229400c80190008c0078000300010050049800ed
:1022a4000000e0008600320068089000f80090000a
:1022b40001004000600c9800880c90000900e000c8
:1022c4001500340009057800e28f5400020036003e
:1022d4002a002000020037000900e0000b0034004f
:1022e40058009000c80190000a017800ec80570063
:1022f40003000100500498000000e0007000320068
:102304006808900000004500600c98008a8454001e
:102314004240a900ebff3c00180990000200e000d5
:102324000b003400e800900058009000c8019000b1
:1023340003000100500498000000e0006000320037
:10234400680890009808900001004000600c980014
:10235400a80c90000900e00015003400090578007d
:10236400e28f5400020036002a00200002003700e9
:102374000900e0000b00340058009000c8019000f0
:102384000a017800ec805700030001005004980013
:102394000000e0004a003200680890000000450098
:1023a400600c98008a8454004240a900ebff3c0072
:1023b400380990000200e0000d003400e8009000ad
:1023c400180890008080400058009000c8019000d8
:1023d40003000100500498000000e00038003200bf
:1023e40068089000b808900001004000600c980054
:1023f400c80c90000900e0001500340009057800bd
:10240400e28f5400020036002a0020000200370048
:102414000900e0000b00340058009000c80190004f
:102424000a017800ec805700030001005004980072
:102434000000e0002200320068089000000045001f
:10244400600c98008a8454004240a900ebff3c00d1
:10245400081090000028a3001b0032000b00e000cd
:10246400190034008b04780009057800e28f5400c9
:10247400020036002a002000020037000900e000b4
:102484000b00340058009000c80190000a01780045
:10249400ee80570003000100500498000000e000a3
:1024a400070032006808900000004500600c9800a6
:1024b4008a8454004240a90003003400eaff370034
:1024c4000080eb00010037000000eb004f067800ad
:1024d4004f05be004f04be000080fa000000060055
:1024e400ef02b000889fbe008a9fbe008c9fbe0092
:1024f4008e1f78000006780010812000c0b79f006e
:1025040080c5b30080cf5000080032000280200054
:10251400c2b79f007740400080cf500003003a00cc
:1025240083002000b3b79f000a00370080c7b300c0
:1025340080cf500005003200a4002000b4b79f00f3
:1025440080c5b30080cf500002003a000001200093
:10255400b0b79f003c04be002c05be0040c6b300cb
:1025640080cf5000030032006540400080cf50000f
:102574000b003a00e00f5400e08f5c00e00f5d00b8
:10258400e08f5d0006003d006000b8006011b800f7
:1025940008045000898458000a0559008b855900a5
:1025a400e00f5400e08f5c00e00f5d00e08f5d0001
:1025b40004003a005c0890008d0120000000e00057
:1025c4000c003200bfb0970001027800cfa2de00f9
:1025d40005037800860378000800be000a01be00e7
:1025e400280107004fb2970064407800d0df9f00b5
:1025f4007d0120003fb0970000027800cfa2de00ea
:1026040005037800860378000800be000a01be00b6
:1026140015010700009ebe000296be000d00e900f1
:1026240061fc2f008f804000008740001e003700af
:102634003fb1970002047800cfc4de00090578009a
:102644008a0578000802be000a03be007fa897002e
:102654008fb097001fb19700afb197000d0107002d
:10266400d0b79f00e1b79f00f2b79f0083bf9f00e0
:102674008d06e9000802be000a03be008b010700b4
:102684007faa970000005200cfb0970061577800ee
:102694005fb09700efb097007fb197008fb99700b4
:1026a400009ebe000296be003c00be002c01be008f
:1026b400f0af9f0081b79f0092b79f00a3b79f0020
:1026c400e00f5000e08f5800e00f5900e08f5900f0
:1026d400020034000d00e000d5ff3c00bfb09700bd
:1026e400e88f500010003a000c1090000038a3004e
:1026f4000d003200f78f560006003e0062fc2f00ea
:102704000f0141008d00410000c3b300914f100040
:10271400050032008d06e90000c3b30063fc2f00fe
:102724008f81410080f17e0078811600120e98009e
:102734006c00900063fc2f008f8141008d8041006c
:102744008cfc07001c0990005c089000800f51006d
:1027540006003d0002005000000e98000c1090008e
:102764000040a100001698000f0037000000e000b0
:102774000d003d000c10900074006000f00f50003c
:1027840009003a007c089000fc0090000100500011
:102794008c08900001005000020050004240a90043
:1027a40001003400000e98004f0778004f06be0069
:1027b4004f05be004f04be00ef02b100000006004a
:1027c40080007800010037000000e8001004e000f9
:1027d400fdff3a0001005000000006008001eb00fc
:1027e400040037008301e80090cf10000400320099
:1027f4000000e800828f5100faff3a000000eb006d
:10280400000006006022b800060220000000d0008c
:102814008180d2000482d2008582d2000000a00010
:102824000202520083825a00030031000202420075
:1028340083824a000000a1000603e900f3ff3a0086
:1028440000000600839f68000100e00002003d00d4
:1028540060001000e08018000300e00002003d006a
:1028640060011100e0811900e6ff07004f00e0005d
:1028740002003b0060001000e08018000000060029
:10288400881f7800000478005001be004000be009c
:102894000400400085804800060149008781490002
:1028a400009cbe000294be000400e1000588e10023
:1028b4000690e1000798e10002003100680044003e
:1028c4001008e8004f04780000000600f487470071
:1028d400889fbe008a9fbe008c9fbe008e1f78001a
:1028e4000205be000004be00d4b79f00e5b79f00f8
:1028f400f6b79f0087bf9f000000eb00c0b79f00a2
:10290400b0b79f00a0b79f0090b79f0080b79f000b
:102914000d042000bfb097004fb0970000014000a5
:102924000000e0000f003d004f08de0000007100d1
:10293400c0b79f009e00070001003d001200200068
:10294400a100070001003d0012002000a6000700be
:10295400b1000700b60007000f004000c8ff0700e1
:10296400220037004f08de0000067100ccb79f003c
:102974008f00070001003d001200200092000700b4
:1029840001003d001200200097000700a20007008c
:102994000fb297009fb297002fb39700bfb3970071
:1029a400a90007000000520081805a0002015b0068
:1029b40083815b0080b79f0091b79f00a2b79f00ff
:1029c400b3b79f000007eb009f0007000020e10061
:1029d40001a8e10002b0e10003b8e1000100310008
:1029e4001e0020000e005600c0b79f004fb2970093
:1029f4000400e00007003500100020000100200062
:102a04006011b80008047000898470000a05710020
:102a14008b8571008d06e900beff3a000400e000da
:102a240003003d00820007000f00400094ff0700f0
:102a34004fa897000000e00004003a000fb497008c
:102a44009fb497002fb59700bfb597009400070077
:102a54004f0778004f06be004f05be004f04be006e
:102a64004f01b10000000600881f78001800200004
:102a7400881f780095ff07008f87e9004f047800ce
:102a840000000600801feb0090ff07008f87e9001d
:102a940000000600889fbe008a9fbe008c1f78003d
:102aa4006e00070007003d0073000700e00f5b00a5
:102ab400e08f5b0007003d00320007000006eb00da
:102ac400040037003400070002003d002a0007001c
:102ad4001c00200072000700e3ff07000203be0091
:102ae4000002be000c00e0000100320022000700da
:102af4000400be000601be004f0678004f05be006c
:102b04004f04be0000000600889fbe008a9fbe00de
:102b14008c1f78005100070005003d005600070097
:102b2400e00f5b00e08f5b0006003d00040037000f
:102b34001900070003003d006000b8006011b800f0
:102b44001000070056000700ceff07000203be0076
:102b54000002be000c00e000010032000600070085
:102b64000400be000601be004f0678004f05be00fb
:102b74004f04be00000006006000b8006011b800f9
:102b840000003700040250008582580006035900f3
:102b940087835900000006000006eb00e00f520096
:102ba400e08f5a00e00f5b00e08f5b00000006003e
:102bb4000180400090b79f000001eb008fb09700a8
:102bc4000100e000000006000200700090b79f00c2
:102bd4000180400080b79f000001eb00ffa8970030
:102be4000100e000000006000200700080b79f00b2
:102bf400018040006faa9700cf20de000100700022
:102c0400f0af9f0004024200250007004f18de00c9
:102c14000002720000000600e4af9f0008044400b4
:102c240089844c000a054d008b854d000000060088
:102c34003fb29700cfb297005fb39700efb397000e
:102c440000fe2f00000006003fb09700cfb09700b1
:102c54005fb19700efb19700000006000205be00c7
:102c64000004be00e00f5000e08f5800e00f590050
:102c7400e08f5900000006006000b8006011b80041
:102c840008045000898458000a0559008b855900ae
:102c94001c002000e00f5200e08f5a0000000600e4
:102ca4000800be000a01be0000000600889fbe00a6
:102cb4008a9fbe008c1f78000205be000004be007f
:102cc4000006eb00e00f5000e08f5800e00f5900c1
:102cd400e08f590007003d006000b8006011b800a3
:102ce40008045000898458000a0559008b8559004e
:102cf4001c002000e00f5200e08f5a00e00f5b0040
:102d0400e08f5b0002003d000f0007000c00a200f2
:102d14000800be000a01be00120007000203be0044
:102d24000002be000c00e0000100320006000700b3
:102d34000400be000601be004f0678004f05be0029
:102d44004f04be00000006006000b8006011b80027
:102d540004025000858258000603590087835900f5
:102d640000000600889fbe008a9fbe008c9fbe00a4
:102d74000404b8000506b8008904460060854e00c6
:102d84000606b8000a054600e0854e000706b800ae
:102d94008b054600040eb800890446000a854e00df
:102da400e0854d00050eb8000a0546008b854e00ef
:102db400060eb8008b0546000416b8000a05460046
:102dc4008b854e000516b8008b054600041eb8001e
:102dd4008b0546000800be000a01be004f06be0077
:0c2de4004f05be004f04be0000000600ba
:020000040000fa
:0200000401f009
:04000c0079ff000078
:020000040000fa
:0200000401f009
:04001000bbff000032
:020000040000fa
:10000800001b0000001b0000001b0000001b00007c
:10001800001b0000001b0000001b0000001b00006c
:10002800001b0000001b0000001b0000001b00005c
:10003800001b0000001b0000001b0000001b00004c
:020000040000fa
:020000040000fa
:102df00053520000562d0000312d000058200000d5
:102e000066690000726d0000776100007265000065
:102e1000203000002e33000020300000313a000046
:102e2000343300003a330000332000002d2000002e
:102e3000536500007020000031390000203200008e
:102e40003030000038000000107a0000000100005f
:102e500000000000010300001003000010bc00008f
:102e6000000700000703000000000000000200004f
:102e700004000000100300002564000000000000b2
:020000040000fa
:102e80000c02fa000000eb004013880062a2a900c7
:102e90006322a90062e2a80062c2a8006302a9003e
:102ea0006362a90060c2a90061e2a800d202a90081
:102eb000d1e2a800d182a900cd82a900cde2a9006b
:102ec00000003700d6c2bf00614060000004a200cd
:102ed0006140600061416000612d200091407800f8
:102ee000e0cfb30000c0600002407000d6e2b7003f
:102ef000e0c3b300c80007000000fb0050079a00c1
:102f000020042000de009200808f5000120032006a
:102f100020042000de009200808f500005003c005d
:102f200010042000de009200808f50001300320059
:102f3000e4ff370070042000de009200808f500014
:102f40002900320060052000de009200808f5000d2
:102f500003003200dbff37000000fe00d9ff37001e
:102f6000a0c3b300ac000700806f290086000700f3
:102f70000040eb00a8000700d2ff3700e0c2b3001a
:102f80008e00070066004700ad000700a0c3b30035
:102f9000a10007000000eb00200798000e0037009a
:102fa0002e009000e600470000004000608078009e
:102fb000990007002e009000e60047000000400046
:102fc000608078004800de00930007002e0090002b
:102fd0000000e800200798002e009000e70f500046
:102fe000efff3400b7ff37000040eb00730007002d
:102ff0003f0007007600470010079800760f470053
:103000000000370032c2bf00624060000004e000f0
:10301000010032003222a90032c2bf0061406000cc
:103020000004e0000f003200b01180008040780002
:103030001e009000014878001e0090000000e8008b
:103040001007980076004700411f20008080400054
:103050001e009000808f500002003e007600470066
:103060001007980060c2bf00614060000004e000eb
:10307000170032001e0090009e0f100007003a005b
:103080000040eb00640007008040780080c7b30078
:1030900080cf50008bff32000d0037001e007800fb
:1030a000104078001e0fe8005b00070080407800a9
:1030b00080c7b30080cf500082ff32007600470007
:1030c000401fb0009e0f500001003e00760f4700e9
:1030d00033c2bf00624060000004e000c9ff3a0054
:1030e0003342a80050052000a0118800c5ff37001a
:1030f0000200fa0080422000c0118800c0002800b1
:103100008011880000902000d10320002e010700cc
:103110000000eb00000f78000b0037003342a800de
:1031200033c2bf00624060000004e000fcff3a00d0
:103130009e00780040722900614078000080fb000a
:10314000a01188001e0fe8001e007800f70f500045
:10315000f2ff360033c2bf00614060000004e000af
:10316000fcff320000a025002126200016010700e8
:103170000000eb008011880080002800801188008a
:103180000080fa00000006000200fa00000f78003c
:10319000040037001e007800104078001e0fe80081
:1031a0001d0007001e007800104078000004e000b9
:1031b000f8ff3a000080fa00000006000200fa0062
:1031c000004f780060c2bf00624060000004e00071
:1031d000fcff3a001e00fb00401388000080fa004c
:1031e000000006000200fa00000f780060c2a9008b
:1031f00060c2bf00614060000004e000fcff3200dc
:1032000040138000804078001e007800014878005c
:103210000080fa00000006000400fa002047980031
:103220002e409000e5ff07000e007800edff07003c
:103230001e4078000000fb000080fa00000006003d
:103240002800fa00881f7800301798002143a80052
:10325000013220009140780000ceb30000c0700021
:1032600020e3b70023c3bf007f40600001c2b3006a
:103270000140700023e3b70040c0b30024e3b7006f
:1032800025c3bf00f041b30025e3b70000e02f00e5
:103290006019880021e3a800d1e2a900d182a8002a
:1032a00000a8210061002000c7000700d1e2a800ab
:1032b000d182a90000a8210061002000c2000700ff
:1032c00080382100000f78001000200020079800af
:1032d0000a0037002e0090000000e900e6004700d9
:1032e0004200dd00010140006000b8000089be001e
:1032f0002e0090000000e800200798002e009000ab
:10330000e80f5000f3ff34000000eb0010079800b6
:103310002400370010002000200798001b00370011
:103320002e009000401988002003a9002023a80047
:1033300020c3bf00614060000004e000fcff3200d9
:103340002e0090000002e9002e0090000000e9002d
:10335000e60047004200dd00010040001001be0011
:103360000018800001002000020140008381480015
:10337000e60047004220dd00010040000288be0058
:103380002e0090000000e800200798002e0090001a
:10339000e80f5000e2ff34001e0090000000e8003b
:1033a000100798001e0090009e0f5000d9ff3500b6
:1033b0001000200020079800140037002e00900015
:1033c00000004000800078003e1090000080400027
:1033d0000084e9002e0090000000e900e6004700ac
:1033e0004200dd00010040001002be001e00780017
:1033f0006101b9000400be0003fd0700000c780065
:103400002e0090000000e800200798002e00900099
:10341000e80f5000e9ff34004f0478000080fa0004
:10342000000006000a00fa003007980041079800e3
:103430006000b800008fbe002143a80001322000c8
:103440009140780000ceb30000c0700020e3b700c8
:1034500023c3bf007f40600001c2b3000140700081
:1034600023e3b70040c0b30024e3b70025c3bf0087
:10347000f041b30025e3b70000e02f006019880099
:1034800021e3a8003e009000401988000000eb00f6
:10349000200798000d0037002003a9002023a80072
:1034a00020c3bf00614060000004e000fcff320068
:1034b00000188000010020001e0f40005e974800a9
:1034c0002e0090000000e80020079800ae00900059
:1034d0004e009000808f5000efff35004e009000ae
:1034e0006101b9001e00be00d7fc07000080fa0091
:1034f000000006000e00fa00600798008e80e800c9
:103500006e009000801f7800c0732900801f780033
:103510000100780007f90700e48757000e8fe800e4
:10352000040037001e007800104078001e0fe800ed
:1035300039ff07001e007800104078000004e0000a
:0c354000f8ff3a000080fa0000000600ce
:020000040000fa
:10354c00220800001200000002000000010002002e
:10355c00000400000800100000000000202b2d00cb
:10356c0023300000340800000800000002000000b6
:10357c00686a6c00747a4c000000000000080000bf
:10358c0022000000020000003031320033343500dc
:10359c0036373800396162006364650066003000bc
:1035ac00313233003435360037383900414243006c
:0c35bc0044454600000000000000000034
:020000040000fa
:1035c800f03fb1000180b10006003500ee030900ac
:1035d80000000000403fb1000180b100fbff3d004a
:1035e8001000b000203fb000020035000080090044
:0835f8000000000000000600c5
:020000040000fa
:043600000000fe00c8
:00000001FF
